H40213918564    SuperMercado La Suertuda           00000010120241124000000000100000083816673000000000000000000000000000000000000000202411252305lasuertuda@market.net                                                                                                                                                            
N40213918564    000000100000013323456789          1214101010708220000008941461RN00001          Clemencio Romero                   00001       Pago Nómina                                                                                                                                                                   
N40213918564    000000100000024567890123          1214101010708220000009786504RN00002          Ceferino Nieves                    00002       Pago Nómina                                                                                                                                                                   
N40213918564    000000100000034323456789          1214101010708220000006916334RN00003          Joaquina Ojeda                     00003       Pago Nómina                                                                                                                                                                   
N40213918564    000000100000043456789012          1214101010708220000008081840RN00004          Rosendo Muñoz                      00004       Pago Nómina                                                                                                                                                                   
N40213918564    000000100000054623456789          1214101010708220000003531765RN00005          Delfin Cardenas                    00005       Pago Nómina                                                                                                                                                                   
N40213918564    000000100000069012345678          1214101010708220000003245668RN00006          Benedicto Rivera                   00006       Pago Nómina                                                                                                                                                                   
N40213918564    000000100000071023456789          1214101010708220000017300082RN00007          Jeremías Figueroa                  00007       Pago Nómina                                                                                                                                                                   
N40213918564    000000100000081623456789          1214101010708220000011003888RN00008          Brígida Maldonado                  00008       Pago Nómina                                                                                                                                                                   
N40213918564    000000100000092923456789          1214101010708220000007481880RN00009          Jeremías Cruz                      00009       Pago Nómina                                                                                                                                                                   
N40213918564    000000100000101229706052          1214101010708220000007527251RN00012          Esthiber Valentin                  00012       Pago Nómina                                                                                                                                                                   
